{
  "_format": "hh-sol-artifact-1",
  "contractName": "PriceOracleGetter",
  "sourceName": "contracts/oracle/PriceOracleGetter.sol",
  "abi": [
    {
      "inputs": [],
      "stateMutability": "nonpayable",
      "type": "constructor"
    },
    {
      "anonymous": false,
      "inputs": [
        {
          "indexed": true,
          "internalType": "address",
          "name": "previousOwner",
          "type": "address"
        },
        {
          "indexed": true,
          "internalType": "address",
          "name": "newOwner",
          "type": "address"
        }
      ],
      "name": "OwnershipTransferred",
      "type": "event"
    },
    {
      "inputs": [],
      "name": "BASE_CURRENCY",
      "outputs": [
        {
          "internalType": "address",
          "name": "",
          "type": "address"
        }
      ],
      "stateMutability": "pure",
      "type": "function"
    },
    {
      "inputs": [],
      "name": "BASE_CURRENCY_UNIT",
      "outputs": [
        {
          "internalType": "uint256",
          "name": "",
          "type": "uint256"
        }
      ],
      "stateMutability": "pure",
      "type": "function"
    },
    {
      "inputs": [
        {
          "internalType": "address",
          "name": "asset",
          "type": "address"
        }
      ],
      "name": "getAssetPrice",
      "outputs": [
        {
          "internalType": "uint256",
          "name": "",
          "type": "uint256"
        }
      ],
      "stateMutability": "view",
      "type": "function"
    },
    {
      "inputs": [
        {
          "internalType": "address",
          "name": "asset",
          "type": "address"
        }
      ],
      "name": "getSourceOfAsset",
      "outputs": [
        {
          "internalType": "address",
          "name": "",
          "type": "address"
        }
      ],
      "stateMutability": "view",
      "type": "function"
    },
    {
      "inputs": [],
      "name": "owner",
      "outputs": [
        {
          "internalType": "address",
          "name": "",
          "type": "address"
        }
      ],
      "stateMutability": "view",
      "type": "function"
    },
    {
      "inputs": [],
      "name": "renounceOwnership",
      "outputs": [],
      "stateMutability": "nonpayable",
      "type": "function"
    },
    {
      "inputs": [
        {
          "internalType": "address",
          "name": "asset",
          "type": "address"
        },
        {
          "internalType": "address",
          "name": "priceFeedAddress",
          "type": "address"
        }
      ],
      "name": "setAssetToPriceFeed",
      "outputs": [],
      "stateMutability": "nonpayable",
      "type": "function"
    },
    {
      "inputs": [
        {
          "internalType": "address",
          "name": "newOwner",
          "type": "address"
        }
      ],
      "name": "transferOwnership",
      "outputs": [],
      "stateMutability": "nonpayable",
      "type": "function"
    }
  ],
  "bytecode": "0x6080604052348015600f57600080fd5b50601733601b565b606b565b600080546001600160a01b038381166001600160a01b0319831681178455604051919092169283917f8be0079c531659141344cd1fd0a4f28419497f9722a3daafe3b4186f6b6457e09190a35050565b61065a8061007a6000396000f3fe608060405234801561001057600080fd5b50600436106100885760003560e01c8063b3596f071161005b578063b3596f071461012c578063e19f47001461013f578063f2fde38b14610146578063fca5a9191461015957600080fd5b8063715018a61461008d5780638c89b64f146100975780638da5cb5b146100b457806392bf2be0146100f3575b600080fd5b61009561016c565b005b670de0b6b3a76400005b6040519081526020015b60405180910390f35b60005473ffffffffffffffffffffffffffffffffffffffff165b60405173ffffffffffffffffffffffffffffffffffffffff90911681526020016100ab565b6100ce610101366004610563565b73ffffffffffffffffffffffffffffffffffffffff9081166000908152600160205260409020541690565b6100a161013a366004610563565b610180565b60006100ce565b610095610154366004610563565b610233565b610095610167366004610585565b6102ef565b610174610444565b61017e60006104c5565b565b73ffffffffffffffffffffffffffffffffffffffff8082166000908152600160205260408082205481517ffeaf968c0000000000000000000000000000000000000000000000000000000081529151929316918391839163feaf968c9160048082019260a0929091908290030181865afa158015610202573d6000803e3d6000fd5b505050506040513d601f19601f8201168201806040525081019061022691906105d2565b5091979650505050505050565b61023b610444565b73ffffffffffffffffffffffffffffffffffffffff81166102e3576040517f08c379a000000000000000000000000000000000000000000000000000000000815260206004820152602660248201527f4f776e61626c653a206e6577206f776e657220697320746865207a65726f206160448201527f646472657373000000000000000000000000000000000000000000000000000060648201526084015b60405180910390fd5b6102ec816104c5565b50565b6102f7610444565b73ffffffffffffffffffffffffffffffffffffffff8216610374576040517f08c379a000000000000000000000000000000000000000000000000000000000815260206004820152601560248201527f496e76616c69642041737365742041646472657373000000000000000000000060448201526064016102da565b73ffffffffffffffffffffffffffffffffffffffff81166103f1576040517f08c379a000000000000000000000000000000000000000000000000000000000815260206004820152601a60248201527f496e76616c69642050726963652046656564204164647265737300000000000060448201526064016102da565b73ffffffffffffffffffffffffffffffffffffffff918216600090815260016020526040902080547fffffffffffffffffffffffff00000000000000000000000000000000000000001691909216179055565b60005473ffffffffffffffffffffffffffffffffffffffff16331461017e576040517f08c379a000000000000000000000000000000000000000000000000000000000815260206004820181905260248201527f4f776e61626c653a2063616c6c6572206973206e6f7420746865206f776e657260448201526064016102da565b6000805473ffffffffffffffffffffffffffffffffffffffff8381167fffffffffffffffffffffffff0000000000000000000000000000000000000000831681178455604051919092169283917f8be0079c531659141344cd1fd0a4f28419497f9722a3daafe3b4186f6b6457e09190a35050565b803573ffffffffffffffffffffffffffffffffffffffff8116811461055e57600080fd5b919050565b60006020828403121561057557600080fd5b61057e8261053a565b9392505050565b6000806040838503121561059857600080fd5b6105a18361053a565b91506105af6020840161053a565b90509250929050565b805169ffffffffffffffffffff8116811461055e57600080fd5b600080600080600060a086880312156105ea57600080fd5b6105f3866105b8565b60208701516040880151606089015192975090955093509150610618608087016105b8565b9050929550929590935056fea2646970667358221220124225491f7c925e9a8fbe6494bc1445dcebf8b788425feaa245a88abed4b42664736f6c634300081b0033",
  "linkReferences": {},
  "deployedLinkReferences": {}
}